{
  "contractName": "MATtoken",
  "abi": [
    {
      "anonymous": false,
      "inputs": [
        {
          "indexed": true,
          "internalType": "address",
          "name": "_owner",
          "type": "address"
        },
        {
          "indexed": true,
          "internalType": "address",
          "name": "_spender",
          "type": "address"
        },
        {
          "indexed": false,
          "internalType": "uint256",
          "name": "_value",
          "type": "uint256"
        }
      ],
      "name": "Approval",
      "type": "event"
    },
    {
      "anonymous": false,
      "inputs": [
        {
          "indexed": false,
          "internalType": "address",
          "name": "_to",
          "type": "address"
        },
        {
          "indexed": false,
          "internalType": "uint256",
          "name": "amount",
          "type": "uint256"
        }
      ],
      "name": "Sell",
      "type": "event"
    },
    {
      "anonymous": false,
      "inputs": [
        {
          "indexed": true,
          "internalType": "address",
          "name": "_from",
          "type": "address"
        },
        {
          "indexed": true,
          "internalType": "address",
          "name": "_to",
          "type": "address"
        },
        {
          "indexed": false,
          "internalType": "uint256",
          "name": "_value",
          "type": "uint256"
        }
      ],
      "name": "Transfer",
      "type": "event"
    },
    {
      "inputs": [
        {
          "internalType": "address",
          "name": "_owner",
          "type": "address"
        },
        {
          "internalType": "address",
          "name": "_spender",
          "type": "address"
        }
      ],
      "name": "allowance",
      "outputs": [
        {
          "internalType": "uint256",
          "name": "remaining",
          "type": "uint256"
        }
      ],
      "stateMutability": "nonpayable",
      "type": "function"
    },
    {
      "inputs": [
        {
          "internalType": "address",
          "name": "_spender",
          "type": "address"
        },
        {
          "internalType": "uint256",
          "name": "_value",
          "type": "uint256"
        }
      ],
      "name": "approve",
      "outputs": [
        {
          "internalType": "bool",
          "name": "success",
          "type": "bool"
        }
      ],
      "stateMutability": "nonpayable",
      "type": "function"
    },
    {
      "inputs": [
        {
          "internalType": "address",
          "name": "_owner",
          "type": "address"
        }
      ],
      "name": "balanceOf",
      "outputs": [
        {
          "internalType": "uint256",
          "name": "",
          "type": "uint256"
        }
      ],
      "stateMutability": "view",
      "type": "function"
    },
    {
      "inputs": [
        {
          "internalType": "address",
          "name": "",
          "type": "address"
        }
      ],
      "name": "balances",
      "outputs": [
        {
          "internalType": "uint256",
          "name": "",
          "type": "uint256"
        }
      ],
      "stateMutability": "view",
      "type": "function"
    },
    {
      "inputs": [],
      "name": "totalSupply",
      "outputs": [
        {
          "internalType": "uint256",
          "name": "",
          "type": "uint256"
        }
      ],
      "stateMutability": "view",
      "type": "function"
    },
    {
      "inputs": [
        {
          "internalType": "address",
          "name": "_to",
          "type": "address"
        },
        {
          "internalType": "uint256",
          "name": "_value",
          "type": "uint256"
        }
      ],
      "name": "transfer",
      "outputs": [
        {
          "internalType": "bool",
          "name": "success",
          "type": "bool"
        }
      ],
      "stateMutability": "nonpayable",
      "type": "function"
    },
    {
      "inputs": [
        {
          "internalType": "address",
          "name": "_from",
          "type": "address"
        },
        {
          "internalType": "address",
          "name": "_to",
          "type": "address"
        },
        {
          "internalType": "uint256",
          "name": "_value",
          "type": "uint256"
        }
      ],
      "name": "transferFrom",
      "outputs": [
        {
          "internalType": "bool",
          "name": "success",
          "type": "bool"
        }
      ],
      "stateMutability": "nonpayable",
      "type": "function"
    },
    {
      "inputs": [],
      "name": "createTokens",
      "outputs": [],
      "stateMutability": "payable",
      "type": "function"
    },
    {
      "inputs": [],
      "name": "checkBalance",
      "outputs": [
        {
          "internalType": "uint256",
          "name": "",
          "type": "uint256"
        }
      ],
      "stateMutability": "view",
      "type": "function"
    },
    {
      "inputs": [],
      "name": "returnpayBalance",
      "outputs": [
        {
          "internalType": "uint256",
          "name": "",
          "type": "uint256"
        }
      ],
      "stateMutability": "view",
      "type": "function"
    }
  ],
  "bytecode": "0x608060405269d3c21bcecceda1000000600355610fa0600455600060055534801561002957600080fd5b50610ed6806100396000396000f3fe6080604052600436106100915760003560e01c806370a082311161005957806370a08231146101a3578063a9059cbb146101e0578063b44272631461021d578063c71daccb14610227578063dd62ed3e1461025257610091565b8063095ea7b31461009657806315c9ffd9146100d357806318160ddd146100fe57806323b872dd1461012957806327e235e314610166575b600080fd5b3480156100a257600080fd5b506100bd60048036038101906100b89190610b72565b61028f565b6040516100ca9190610bf3565b60405180910390f35b3480156100df57600080fd5b506100e8610381565b6040516100f59190610c2e565b60405180910390f35b34801561010a57600080fd5b5061011361038b565b6040516101209190610c2e565b60405180910390f35b34801561013557600080fd5b50610150600480360381019061014b9190610b1f565b610391565b60405161015d9190610bf3565b60405180910390f35b34801561017257600080fd5b5061018d60048036038101906101889190610ab2565b610628565b60405161019a9190610c2e565b60405180910390f35b3480156101af57600080fd5b506101ca60048036038101906101c59190610ab2565b610640565b6040516101d79190610c2e565b60405180910390f35b3480156101ec57600080fd5b5061020760048036038101906102029190610b72565b610689565b6040516102149190610bf3565b60405180910390f35b610225610804565b005b34801561023357600080fd5b5061023c610980565b6040516102499190610c2e565b60405180910390f35b34801561025e57600080fd5b5061027960048036038101906102749190610adf565b610988565b6040516102869190610c2e565b60405180910390f35b600081600260003373ffffffffffffffffffffffffffffffffffffffff1673ffffffffffffffffffffffffffffffffffffffff16815260200190815260200160002060008573ffffffffffffffffffffffffffffffffffffffff1673ffffffffffffffffffffffffffffffffffffffff168152602001908152602001600020819055508273ffffffffffffffffffffffffffffffffffffffff163373ffffffffffffffffffffffffffffffffffffffff167f8c5be1e5ebec7d5bd14f71427d1e84f3dd0314c0f7b2291e5b200ac8c7c3b9258460405161036f9190610c2e565b60405180910390a36001905092915050565b6000600554905090565b60005481565b600081600160008673ffffffffffffffffffffffffffffffffffffffff1673ffffffffffffffffffffffffffffffffffffffff168152602001908152602001600020541015801561045e575081600260008673ffffffffffffffffffffffffffffffffffffffff1673ffffffffffffffffffffffffffffffffffffffff16815260200190815260200160002060003373ffffffffffffffffffffffffffffffffffffffff1673ffffffffffffffffffffffffffffffffffffffff1681526020019081526020016000205410155b801561046a5750600082115b1561061c5781600160008573ffffffffffffffffffffffffffffffffffffffff1673ffffffffffffffffffffffffffffffffffffffff16815260200190815260200160002060008282546104be9190610c5a565b9250508190555081600160008673ffffffffffffffffffffffffffffffffffffffff1673ffffffffffffffffffffffffffffffffffffffff16815260200190815260200160002060008282546105149190610d3b565b9250508190555081600260008673ffffffffffffffffffffffffffffffffffffffff1673ffffffffffffffffffffffffffffffffffffffff16815260200190815260200160002060003373ffffffffffffffffffffffffffffffffffffffff1673ffffffffffffffffffffffffffffffffffffffff16815260200190815260200160002060008282546105a79190610d3b565b925050819055508273ffffffffffffffffffffffffffffffffffffffff168473ffffffffffffffffffffffffffffffffffffffff167fddf252ad1be2c89b69c2b068fc378daa952ba7f163c4a11628f55a4df523b3ef8460405161060b9190610c2e565b60405180910390a360019050610621565b600090505b9392505050565b60016020528060005260406000206000915090505481565b6000600160008373ffffffffffffffffffffffffffffffffffffffff1673ffffffffffffffffffffffffffffffffffffffff168152602001908152602001600020549050919050565b600081600160003373ffffffffffffffffffffffffffffffffffffffff1673ffffffffffffffffffffffffffffffffffffffff16815260200190815260200160002054101580156106da5750600082115b156107f95781600160003373ffffffffffffffffffffffffffffffffffffffff1673ffffffffffffffffffffffffffffffffffffffff168152602001908152602001600020600082825461072e9190610d3b565b9250508190555081600160008573ffffffffffffffffffffffffffffffffffffffff1673ffffffffffffffffffffffffffffffffffffffff16815260200190815260200160002060008282546107849190610c5a565b925050819055508273ffffffffffffffffffffffffffffffffffffffff163373ffffffffffffffffffffffffffffffffffffffff167fddf252ad1be2c89b69c2b068fc378daa952ba7f163c4a11628f55a4df523b3ef846040516107e89190610c2e565b60405180910390a3600190506107fe565b600090505b92915050565b600061081260045434610a0f565b9050600061082282600054610a50565b905080600354111561094157610877600160003373ffffffffffffffffffffffffffffffffffffffff1673ffffffffffffffffffffffffffffffffffffffff1681526020019081526020016000205434610a50565b600160003373ffffffffffffffffffffffffffffffffffffffff1673ffffffffffffffffffffffffffffffffffffffff168152602001908152602001600020819055506108c43383610689565b506108d160005483610a50565b6000819055503373ffffffffffffffffffffffffffffffffffffffff163073ffffffffffffffffffffffffffffffffffffffff167fddf252ad1be2c89b69c2b068fc378daa952ba7f163c4a11628f55a4df523b3ef846040516109349190610c2e565b60405180910390a361097c565b6040517f08c379a000000000000000000000000000000000000000000000000000000000815260040161097390610c0e565b60405180910390fd5b5050565b600047905090565b6000600260008473ffffffffffffffffffffffffffffffffffffffff1673ffffffffffffffffffffffffffffffffffffffff16815260200190815260200160002060008373ffffffffffffffffffffffffffffffffffffffff1673ffffffffffffffffffffffffffffffffffffffff16815260200190815260200160002054905092915050565b6000808284610a1e9190610ce1565b90506000841480610a395750828482610a379190610cb0565b145b610a4657610a45610db7565b5b8091505092915050565b6000808284610a5f9190610c5a565b9050838110158015610a715750828110155b610a7e57610a7d610db7565b5b8091505092915050565b600081359050610a9781610e72565b92915050565b600081359050610aac81610e89565b92915050565b600060208284031215610ac857610ac7610e44565b5b6000610ad684828501610a88565b91505092915050565b60008060408385031215610af657610af5610e44565b5b6000610b0485828601610a88565b9250506020610b1585828601610a88565b9150509250929050565b600080600060608486031215610b3857610b37610e44565b5b6000610b4686828701610a88565b9350506020610b5786828701610a88565b9250506040610b6886828701610a9d565b9150509250925092565b60008060408385031215610b8957610b88610e44565b5b6000610b9785828601610a88565b9250506020610ba885828601610a9d565b9150509250929050565b610bbb81610d81565b82525050565b6000610bce601783610c49565b9150610bd982610e49565b602082019050919050565b610bed81610dad565b82525050565b6000602082019050610c086000830184610bb2565b92915050565b60006020820190508181036000830152610c2781610bc1565b9050919050565b6000602082019050610c436000830184610be4565b92915050565b600082825260208201905092915050565b6000610c6582610dad565b9150610c7083610dad565b9250827fffffffffffffffffffffffffffffffffffffffffffffffffffffffffffffffff03821115610ca557610ca4610de6565b5b828201905092915050565b6000610cbb82610dad565b9150610cc683610dad565b925082610cd657610cd5610e15565b5b828204905092915050565b6000610cec82610dad565b9150610cf783610dad565b9250817fffffffffffffffffffffffffffffffffffffffffffffffffffffffffffffffff0483118215151615610d3057610d2f610de6565b5b828202905092915050565b6000610d4682610dad565b9150610d5183610dad565b925082821015610d6457610d63610de6565b5b828203905092915050565b6000610d7a82610d8d565b9050919050565b60008115159050919050565b600073ffffffffffffffffffffffffffffffffffffffff82169050919050565b6000819050919050565b7f4e487b7100000000000000000000000000000000000000000000000000000000600052600160045260246000fd5b7f4e487b7100000000000000000000000000000000000000000000000000000000600052601160045260246000fd5b7f4e487b7100000000000000000000000000000000000000000000000000000000600052601260045260246000fd5b600080fd5b7f746f6b656e732063616e27742062652063726561746564000000000000000000600082015250565b610e7b81610d6f565b8114610e8657600080fd5b50565b610e9281610dad565b8114610e9d57600080fd5b5056fea26469706673582212208af58a29380534f21f4c39d2029e9406b0a333eaaa71274644b3cbfc3af8068964736f6c63430008070033",
  "immutableReferences": {},
  "source": "// SPDX-License-Identifier: MIT\npragma solidity >=0.8.0 <0.9.0;\n import \"./StandardToken.sol\";\n import \"./SafeMath.sol\";\n\ncontract MATtoken is StandardToken,SafeMath{\n\n\n    uint256 totalMarketCap = 10**6*10**18;\n    uint256 tokenExchangeRate = 4000;\n    uint payBalance = 0;\n    event Sell(address _to,uint amount);\n    function createTokens()external payable{\n        uint256 tokens = safeMult(tokenExchangeRate,msg.value);\n        uint256 totalcreation = safeAdd(tokens,totalSupply);\n        if(totalMarketCap > totalcreation){\n            balances[msg.sender] = safeAdd(balances[msg.sender],msg.value);\n            transfer(msg.sender,tokens);\n            totalSupply = safeAdd(totalSupply, tokens);\n            emit Transfer(address(this), msg.sender,tokens);}\n        else{\n            revert(\"tokens can't be created\");\n        }\n    }\n    \n    // function sellTokens(uint256 _amount) external{\n    //     require(balances[msg.sender] >= _amount,'only owner can sell his tokens');\n    //      payBalance = _amount/tokenExchangeRate;\n    //      uint fee = safeMult(payBalance,2)/100;\n    //      payBalance = safeSubtract(payBalance,fee);\n    //      require(address(this).balance > payBalance,'contract does not have enough balance');\n    //     // payable(msg.sender).transfer(payBalance);\n    //      emit Sell(msg.sender, _amount);\n    // }\n    function checkBalance()public view returns(uint256){\n        return address(this).balance;\n    }\n    \n    function returnpayBalance()public view returns(uint256){\n        return payBalance;\n    }\n}",
  "sourcePath": "/home/aduttya/Documents/ERC20/contracts/MATtoken.sol",
  "compiler": {
    "name": "solc",
    "version": "0.8.7+commit.e28d00a7.Emscripten.clang"
  },
  "schemaVersion": "3.4.3",
  "updatedAt": "2021-08-21T10:30:08.773Z",
  "devdoc": {
    "kind": "dev",
    "methods": {},
    "version": 1
  },
  "userdoc": {
    "kind": "user",
    "methods": {},
    "version": 1
  }
}