{
  "contractName": "StandardToken",
  "abi": [
    {
      "anonymous": false,
      "inputs": [
        {
          "indexed": true,
          "internalType": "address",
          "name": "_owner",
          "type": "address"
        },
        {
          "indexed": true,
          "internalType": "address",
          "name": "_spender",
          "type": "address"
        },
        {
          "indexed": false,
          "internalType": "uint256",
          "name": "_value",
          "type": "uint256"
        }
      ],
      "name": "Approval",
      "type": "event"
    },
    {
      "anonymous": false,
      "inputs": [
        {
          "indexed": true,
          "internalType": "address",
          "name": "_from",
          "type": "address"
        },
        {
          "indexed": true,
          "internalType": "address",
          "name": "_to",
          "type": "address"
        },
        {
          "indexed": false,
          "internalType": "uint256",
          "name": "_value",
          "type": "uint256"
        }
      ],
      "name": "Transfer",
      "type": "event"
    },
    {
      "inputs": [
        {
          "internalType": "address",
          "name": "",
          "type": "address"
        }
      ],
      "name": "balances",
      "outputs": [
        {
          "internalType": "uint256",
          "name": "",
          "type": "uint256"
        }
      ],
      "stateMutability": "view",
      "type": "function",
      "constant": true
    },
    {
      "inputs": [],
      "name": "totalSupply",
      "outputs": [
        {
          "internalType": "uint256",
          "name": "",
          "type": "uint256"
        }
      ],
      "stateMutability": "view",
      "type": "function",
      "constant": true
    },
    {
      "inputs": [
        {
          "internalType": "address",
          "name": "_to",
          "type": "address"
        },
        {
          "internalType": "uint256",
          "name": "_value",
          "type": "uint256"
        }
      ],
      "name": "transfer",
      "outputs": [
        {
          "internalType": "bool",
          "name": "success",
          "type": "bool"
        }
      ],
      "stateMutability": "nonpayable",
      "type": "function"
    },
    {
      "inputs": [
        {
          "internalType": "address",
          "name": "_from",
          "type": "address"
        },
        {
          "internalType": "address",
          "name": "_to",
          "type": "address"
        },
        {
          "internalType": "uint256",
          "name": "_value",
          "type": "uint256"
        }
      ],
      "name": "transferFrom",
      "outputs": [
        {
          "internalType": "bool",
          "name": "success",
          "type": "bool"
        }
      ],
      "stateMutability": "nonpayable",
      "type": "function"
    },
    {
      "inputs": [
        {
          "internalType": "address",
          "name": "_owner",
          "type": "address"
        }
      ],
      "name": "balanceOf",
      "outputs": [
        {
          "internalType": "uint256",
          "name": "",
          "type": "uint256"
        }
      ],
      "stateMutability": "view",
      "type": "function",
      "constant": true
    },
    {
      "inputs": [
        {
          "internalType": "address",
          "name": "_spender",
          "type": "address"
        },
        {
          "internalType": "uint256",
          "name": "_value",
          "type": "uint256"
        }
      ],
      "name": "approve",
      "outputs": [
        {
          "internalType": "bool",
          "name": "success",
          "type": "bool"
        }
      ],
      "stateMutability": "nonpayable",
      "type": "function"
    },
    {
      "inputs": [
        {
          "internalType": "address",
          "name": "_owner",
          "type": "address"
        },
        {
          "internalType": "address",
          "name": "_spender",
          "type": "address"
        }
      ],
      "name": "allowance",
      "outputs": [
        {
          "internalType": "uint256",
          "name": "remaining",
          "type": "uint256"
        }
      ],
      "stateMutability": "nonpayable",
      "type": "function"
    }
  ],
  "bytecode": "0x608060405234801561001057600080fd5b50610a9a806100206000396000f3fe608060405234801561001057600080fd5b506004361061007d5760003560e01c806327e235e31161005b57806327e235e31461010057806370a0823114610130578063a9059cbb14610160578063dd62ed3e146101905761007d565b8063095ea7b31461008257806318160ddd146100b257806323b872dd146100d0575b600080fd5b61009c6004803603810190610097919061089c565b6101c0565b6040516100a991906108fa565b60405180910390f35b6100ba6102b2565b6040516100c79190610915565b60405180910390f35b6100ea60048036038101906100e59190610849565b6102b8565b6040516100f791906108fa565b60405180910390f35b61011a600480360381019061011591906107dc565b61054f565b6040516101279190610915565b60405180910390f35b61014a600480360381019061014591906107dc565b610567565b6040516101579190610915565b60405180910390f35b61017a6004803603810190610175919061089c565b6105b0565b60405161018791906108fa565b60405180910390f35b6101aa60048036038101906101a59190610809565b61072b565b6040516101b79190610915565b60405180910390f35b600081600260003373ffffffffffffffffffffffffffffffffffffffff1673ffffffffffffffffffffffffffffffffffffffff16815260200190815260200160002060008573ffffffffffffffffffffffffffffffffffffffff1673ffffffffffffffffffffffffffffffffffffffff168152602001908152602001600020819055508273ffffffffffffffffffffffffffffffffffffffff163373ffffffffffffffffffffffffffffffffffffffff167f8c5be1e5ebec7d5bd14f71427d1e84f3dd0314c0f7b2291e5b200ac8c7c3b925846040516102a09190610915565b60405180910390a36001905092915050565b60005481565b600081600160008673ffffffffffffffffffffffffffffffffffffffff1673ffffffffffffffffffffffffffffffffffffffff1681526020019081526020016000205410158015610385575081600260008673ffffffffffffffffffffffffffffffffffffffff1673ffffffffffffffffffffffffffffffffffffffff16815260200190815260200160002060003373ffffffffffffffffffffffffffffffffffffffff1673ffffffffffffffffffffffffffffffffffffffff1681526020019081526020016000205410155b80156103915750600082115b156105435781600160008573ffffffffffffffffffffffffffffffffffffffff1673ffffffffffffffffffffffffffffffffffffffff16815260200190815260200160002060008282546103e59190610930565b9250508190555081600160008673ffffffffffffffffffffffffffffffffffffffff1673ffffffffffffffffffffffffffffffffffffffff168152602001908152602001600020600082825461043b9190610986565b9250508190555081600260008673ffffffffffffffffffffffffffffffffffffffff1673ffffffffffffffffffffffffffffffffffffffff16815260200190815260200160002060003373ffffffffffffffffffffffffffffffffffffffff1673ffffffffffffffffffffffffffffffffffffffff16815260200190815260200160002060008282546104ce9190610986565b925050819055508273ffffffffffffffffffffffffffffffffffffffff168473ffffffffffffffffffffffffffffffffffffffff167fddf252ad1be2c89b69c2b068fc378daa952ba7f163c4a11628f55a4df523b3ef846040516105329190610915565b60405180910390a360019050610548565b600090505b9392505050565b60016020528060005260406000206000915090505481565b6000600160008373ffffffffffffffffffffffffffffffffffffffff1673ffffffffffffffffffffffffffffffffffffffff168152602001908152602001600020549050919050565b600081600160003373ffffffffffffffffffffffffffffffffffffffff1673ffffffffffffffffffffffffffffffffffffffff16815260200190815260200160002054101580156106015750600082115b156107205781600160003373ffffffffffffffffffffffffffffffffffffffff1673ffffffffffffffffffffffffffffffffffffffff16815260200190815260200160002060008282546106559190610986565b9250508190555081600160008573ffffffffffffffffffffffffffffffffffffffff1673ffffffffffffffffffffffffffffffffffffffff16815260200190815260200160002060008282546106ab9190610930565b925050819055508273ffffffffffffffffffffffffffffffffffffffff163373ffffffffffffffffffffffffffffffffffffffff167fddf252ad1be2c89b69c2b068fc378daa952ba7f163c4a11628f55a4df523b3ef8460405161070f9190610915565b60405180910390a360019050610725565b600090505b92915050565b6000600260008473ffffffffffffffffffffffffffffffffffffffff1673ffffffffffffffffffffffffffffffffffffffff16815260200190815260200160002060008373ffffffffffffffffffffffffffffffffffffffff1673ffffffffffffffffffffffffffffffffffffffff16815260200190815260200160002054905092915050565b6000813590506107c181610a36565b92915050565b6000813590506107d681610a4d565b92915050565b6000602082840312156107f2576107f1610a31565b5b6000610800848285016107b2565b91505092915050565b600080604083850312156108205761081f610a31565b5b600061082e858286016107b2565b925050602061083f858286016107b2565b9150509250929050565b60008060006060848603121561086257610861610a31565b5b6000610870868287016107b2565b9350506020610881868287016107b2565b9250506040610892868287016107c7565b9150509250925092565b600080604083850312156108b3576108b2610a31565b5b60006108c1858286016107b2565b92505060206108d2858286016107c7565b9150509250929050565b6108e5816109cc565b82525050565b6108f4816109f8565b82525050565b600060208201905061090f60008301846108dc565b92915050565b600060208201905061092a60008301846108eb565b92915050565b600061093b826109f8565b9150610946836109f8565b9250827fffffffffffffffffffffffffffffffffffffffffffffffffffffffffffffffff0382111561097b5761097a610a02565b5b828201905092915050565b6000610991826109f8565b915061099c836109f8565b9250828210156109af576109ae610a02565b5b828203905092915050565b60006109c5826109d8565b9050919050565b60008115159050919050565b600073ffffffffffffffffffffffffffffffffffffffff82169050919050565b6000819050919050565b7f4e487b7100000000000000000000000000000000000000000000000000000000600052601160045260246000fd5b600080fd5b610a3f816109ba565b8114610a4a57600080fd5b50565b610a56816109f8565b8114610a6157600080fd5b5056fea2646970667358221220ffc178e7f6d0e48d6c7b3406d6961b080b927132bc9f6a5bb5abe90dbb9d090964736f6c63430008070033",
  "immutableReferences": {},
  "source": "// SPDX-License-Identifier: MIT\npragma solidity >=0.8.0 <0.9.0;\n\nabstract contract Token {\n    uint256 public totalSupply;\n    function balanceOf(address _owner) virtual public returns (uint256 balance);\n    function transfer(address _to, uint256 _value) virtual public returns (bool success);\n    function transferFrom(address _from, address _to, uint256 _value)virtual external returns (bool success);\n    function approve(address _spender, uint256 _value) virtual external returns (bool success);\n    function allowance(address _owner, address _spender) virtual external returns (uint256 remaining);\n    event Transfer(address indexed _from, address indexed _to, uint256 _value);\n    event Approval(address indexed _owner, address indexed _spender, uint256 _value);\n}\n\n\n/*  ERC 20 token */\ncontract StandardToken is Token {\n\n    function transfer(address _to, uint256 _value) override public returns (bool success) {\n      if (balances[msg.sender] >= _value && _value > 0){\n        balances[msg.sender] -= _value;\n        balances[_to] += _value;\n        emit Transfer(msg.sender, _to, _value);\n        return true;\n      } else{ \n        return false; \n      }\n    }\n\n    function transferFrom(address _from, address _to, uint256 _value) override external returns (bool success) {\n      if (balances[_from] >= _value && allowed[_from][msg.sender] >= _value && _value > 0) {\n        balances[_to] += _value;\n        balances[_from] -= _value;\n        allowed[_from][msg.sender] -= _value;\n        emit Transfer(_from, _to, _value);\n        return true;\n      } else { \n        return false; \n      }\n    }\n\n    function balanceOf(address _owner)override public view returns (uint256){\n        return balances[_owner];\n    }\n\n    function approve(address _spender, uint256 _value)override external returns (bool success) {\n        allowed[msg.sender][_spender] = _value;\n       emit Approval(msg.sender, _spender, _value);\n        return true;\n    }\n\n    function allowance(address _owner, address _spender)override external returns (uint256 remaining) {\n      return allowed[_owner][_spender];\n    }\n\n    mapping (address => uint256) public balances;\n    mapping (address => mapping (address => uint256)) allowed;    \n}",
  "sourcePath": "/home/aduttya/Documents/ERC20/contracts/StandardToken.sol",
  "compiler": {
    "name": "solc",
    "version": "0.8.7+commit.e28d00a7.Emscripten.clang"
  },
  "schemaVersion": "3.4.3",
  "updatedAt": "2021-08-21T08:23:36.199Z",
  "networkType": "ethereum",
  "devdoc": {
    "kind": "dev",
    "methods": {},
    "version": 1
  },
  "userdoc": {
    "kind": "user",
    "methods": {},
    "version": 1
  }
}